:1000000094C099C098C097C096C095C094C093C042
:1000100092C091C090C08FC08EC08DC08CC08BC06C
:100020008AC089C088C087C086C0FFFFF1A1E411E3
:10003000D744CB2FBFC8B504AADBA14498378FACF7
:10004000879C800078D072096BA265985FE45A8221
:10005000556E50A24C1C47D643CE40003C68390434
:1000600035D132CC2FF22D412AB72851260E23EB61
:1000700021E720001E341C821AE9196617F916A11F
:10008000155B1429130711F610F310000F1A0E4117
:100090000D740CB30BFC0B500AAE0A14098308FB59
:1000A000087A0800078D072106BA065905FE05A83B
:1000B0000557050A04C2047D043D040003C70390EC
:1000C000035D032D02FF02D402AB02850261023FF1
:1000D000021E020001E301C801AF01960180016A1E
:1000E000015601430130011F010F010000F200E43D
:1000F00000D700CB00C000B500AB00A10098009075
:100100000088008000790072006C00660060005B6F
:1001100000550051004C004800440040003C0039AC
:10012000003600330030002D000011241FBECFED3B
:10013000CDBF09D051C064CFEBE2F0E080818823CD
:10014000ECF78CB10895AF92BF92CF92DF92EF920D
:10015000FF920F931F93CF93DF93E7E3F0E080814B
:100160008860808380E48FBD89E08EBD8FE28BBD87
:100170001ABC12B88FE089B980E18AB986E083B9E8
:100180001FEFCEE4D0E009E00F2EFAE2AF2EF0E050
:10019000BF2EF02D0F2EFBE4CF2EDD24F02D0F2EE1
:1001A000FAE4EF2EFF24F02DC7DF803829F4C4DFF6
:1001B0001817D1F71882F8CF8039B1F7BDDF182FA3
:1001C00008838B51880FF501E80FF11DE491D601EA
:0C01D000EC93D701EC93E8CFF894FFCF3C
:00000001FF
